:0600000002002902083194
:03000B0002040EDE
:030013000209A33C
:03001B000203B825
:030023000210B711
:13008200E4F508F509F50AF50B750C20F50DF50E020026BF
:030026000202B221
:2000950090FA407440F090FA41E4F090FA427440F090FA437460F090FA44E4F090FA457458
:2000B50060F090FA467470F090FA47E4F090F80A741FF090F80EE4F090F809742CF090F86A
:2000D500107480F0A3E4F090F009E054076404701C90FA60E4F0A3740FF0A3F090FA64741F
:2000F50008F0A304F0A314F0A304F0801790FA60E4F0A3740FF0A3F090FA647402F0A3F039
:20011500A3F0A3F090FF00E054FBF0E04404F0E04410F0E054FCF090FF0374C1F090FF0C48
:20013500E030E0F990FF13E054FEF090FF0CE020E10790FF13E04410F090FA6FE0441DF08A
:2001550090FA14E054FDF0A3E04402F090FA217407F090FA20E4F090FA68E054F7F090FAE7
:2001750069E054F7F090FA6AE054F7F090FA6BE054F7F0758911758CF0758A5F758DF07502
:200195008B5F75B80175881075980075A8802290FA38E030E1012290F0007405F090F20018
:2001B500E054FEF090F0007405F090F2137430F0906CD1E0FF700C906CD0E07006906CD2DE
:2001D500E0601B906CD2E090F214F0906CD0E090F215F0A3E04FF090F213E054EFF0906CE2
:2001F500D4E0FF700C906CD3E07006906CD5E0603690F213E04FF0906CD3E0FE90F212F06A
:20021500906CD5E090F211F0EE249A90F217F0A3E054F0F0E04FF0906CD3E0C394665007C7
:2002350090F218E0440FF090F2287424F090F210E054F7F090F000E4F090F014E054BFF042
:2002550090FA6FE04410F090F014E0540360F890FA6B74FFF022AF8290F293E4F090F293A0
:20027500E020E6F990F29CE545F0E4F0EFF07E007F0090F29CE4F00EBE00010FC3EE94058A
:20029500EF6480948040EB90F28C7408F090F28DE4F090F28EF090F2937440F02212009558
:2002B5001201A41206E61203C512048F1204A8120A5CAC0FAD10AE11AF12050FE4B50F0CFF
:2002D5000510B510070511B511020512C3ED9420EE9400EF94004020E50C9420E50D94003F
:2002F500E50E94005012050BE4B50B0C050CB50C07050DB50D02050EE50A60B3C3E50C9434
:2003150020E50D9400E50E940040A4E5082457FEE5093411FF8E828F83E493605A75450012
:2003350075820012026B75450075820012026B75450075820012026B75450075820012020D
:200355006BE5082457F582E5093411F583E493FF74012508FDE43509FEED2457F582EE345D
:2003750011F583E493F5458F8212026B75450075820012026B8011E4F50BF50CF50DF50EF3
:20039500F50FF510F511F51274022508F508E43509F509C3648094A050030202C4750A00FD
:0303B5000202C47D
:20115700123456780000000000000000000000000000000000000000000000000000000064
:20117700000000000000000000000000000000000000000000000000000000000000000058
:20119700000000000000000000000000000000000000000000000000000000000000000038
:2011B700000000000000000000000000000000000000000000000000000000000000000018
:2011D7000000000000000000000000000000000000000000000000000000000000000000F8
:2003B800C28E85198D85188B0517D28E3290FA60E0FFBF0F0875183C7519F6802590FA6059
:2003D800E0FF7E0074022FF545E43EF5469009C412111BAE82AF83C3E49EFEE49FFF8E1804
:2003F8008F19751700C28ED2ABE589540F4410F5892285178222C0E0C082C083C007C0D063
:2004180075D000C28C758AE6758C96D28C90FA15E020E102805105130514C3E5149516501C
:2004380002804475140074E12515500B90FA157401F0751500803074F62515500B90FA158F
:20045800E0FFF4F00515801FE5157002801990FA15E030E00A90FA15E053E0FEF0800890B2
:20047800FA15E043E001F0D0D0D007D083D082D0E032AE828E162275166475130090FA1557
:200498007403F0751400751500D2AFD2A9D28C2290FA157402F07515012290FA157403F096
:0404B8007515002294
:2004BC00AF8290F80BE4F01F90F80CEFF0E4B54602800E7401B5460280147402B5461C8074
:2004DC001490F80DE545F090F80EE545F02290F80DE545F02290F80EE545F022AE82AF8366
:2004FC008E0590F1CCEDF08F0690F1CDEEF090F1CEE4F090F1D37440F090F1D3E020E6F914
:20051C0090F0487405F022AE82AF83EE4F6056754500754600758220C007C0061204BC75B7
:20053C0045807546017582201204BCD006D00790F1C57480F090F1C6E4F090F1C7F090F18A
:20055C00CAE523F08E0590F1CCEDF08F0690F1CDEEF090F1CEE4F090F1D37488F090F1D388
:20057C00E0FF20E7F822AE82AF83EE4F6056754500754600758220C007C0061204BC754565
:20059C00807546017582201204BCD006D00790F2057480F090F206E4F090F207F090F20AA1
:2005BC00E524F08E0590F20CEDF08F0690F20DEEF090F20EE4F090F2137488F090F213E0CC
:2005DC00FF20E7F8229000007455F09000017453F09000027442F09000037453F090000438
:2005FC00E52EF0900005E52FF0900006E530F0900007E531F0AF26900008EFF0AF27900059
:20061C0009EFF0AF2890000AEFF0AF2990000BEFF090000CE525F075240090000D120582CF
:20063C00906006E4F0F526F527F528F5292290F213E0FF20E1F890F217E0FF20E70D90F0C7
:20065C0010E020E5F1906006E4F02290F213E0FF20E6F890F253E0FF20E6F890F293E0FF94
:20067C0020E6F890F2D3E020E6F990F21C7455F07453F07442F07453F090F21CE52EF0E53B
:20069C002FF0E530F0E531F0AF2690F21CEFF0AF2790F21CEFF0AF2890F21CEFF0AF2990B3
:2006BC00F21CEFF0E525F090F20C740DF090F20DE4F090F20EF090F2137440F0906006E442
:2006DC00F0F526F527F528F52922906000E4F0906005F0906006F0F52290F2057480F090D9
:2006FC00F206E4F090F207F090F2087410F090F20AE4F090F2457480F090F246E4F090F272
:20071C0047F090F2487410F090F24AE4F090FA38E030E15490F009E0FF5307077E00BF0497
:20073C0008BE0005752204802790F009E0540760028005752200801890F009E0FF530707ED
:20075C007E00BF0108BE00057522018003752200D2AAD2A890F030740AF0E4F526F527F59E
:20077C0028F529F5250205E190F0007406F090F283E04410F090F28C74C2F0A374E0F0A344
:20079C00749CF090F2907417F090F293740CF090F32074C0F0A374E3F0A3748BF0A3742EA3
:2007BC00F090F3267401F0A37405F090F30D7410F090F30C7402F090F30A7430F090F00079
:2007DC007407F090F28074B5F090FA6FE054EFF0E490422BF090422BE004F0E0B4FAF690B5
:2007FC00FA6FE04410F090F014E0540360F890F000E4F090F06874C0F090F030740AF0901F
:20081C00F0087480F090FA38E04402F0D2AAD2A87FFADFFE22C0E0C082C083C007C006C028
:20083C0005C004C0D075D00090F027E0FF906000F0EF30E50690F0277420F0EF30E40690CA
:20085C00F0277410F0EF30E73F90F0277480F090F009E0FE5306077D00BE0408BD000575DC
:20087C002204802490F009E054077004F522801890F009E0FE5306077D00BE0108BD0005DE
:20089C007522018003752200EF30E60690F0277440F090F087E0906004F090F086E0906093
:2008BC0003F090F082E0FF906002F090F080E0906001F0EF30E70690F0827480F0906002C1
:2008DC00E030E60690F0827440F0906001E030E05E90F0807401F090F048E030E75190F026
:2008FC00B8E0F51A90F0B9E0F51B90F0BAE0FF90F0BBE0FDE4FEFCEF4206EC42058E1C8D5C
:20091C001D90F0BCE0FF90F0BDE0FDE4FEFCEF4206EC42058E1E8D1F90F0BEE0FF90F0BF6D
:20093C00E0FDE4FEFCEF4206EC42058E208D2190F082E030E50690F0827420F090F081E0B6
:20095C0030E40690F0817410F090F081E030E50690F0817420F0906002E0FF906001E04287
:20097C0007906003E04207906004E04207906000E04F6002C2A8D0D0D004D005D006D0073A
:20099C00D083D082D0E032C0E0C082C083C007C0D075D00090F020E0540AFF30E11690F06F
:2009BC0030E053E0FDF090F0207402F0906005E043E002F0EF30E31690F030E053E0F7F039
:2009DC0090F0207408F0906005E043E008F0D0D0D007D083D082D0E03290F030740AF09053
:2009FC00F213E4F090F253F090F293F090F2D3F022AE1A5306607F00BE0005BF00028010BD
:200A1C00BE2005BF0002800FBE401ABF0017800E120D94AF828010120DD9AF828009120EC5
:200A3C0006AF8280027F00EF7015E520452160067E087F0080047E027F0090F048EEF022CD
:200A5C00906002E0FF906001E0FE4FFD906003E04205906004E04205906000E0FC4D60766A
:200A7C00EC6039EC30E62490F008E053E07FF01209F590FF88E4F090FF827410F090FF880E
:200A9C00E0FDBD02F890F0087480F0906000E030E7031209F5906000E4F08038EF54C06061
:200ABC001B1209F590F092E4F090F096F0906002E030E60F90F07A7401F08007EE30E00325
:200ADC00120A0D906001E4F0906002F0906003F0906004F0D2A890F2DAE0601990F2D3746B
:200AFC0040F0750A01906005E053E0F7F090F030E043E008F0906005E020E103020C5E90BB
:200B1C00F25AE0FFBF1F028003020C46E4F526F527F528F52990F25CE0FF90F25CE0FE9078
:200B3C00F25CE0FD90F25CE0FCBF55028003020C3CBE53028003020C3CBD42028003020C5F
:200B5C003CBC43028003020C3C90F25CE0FF8F2E90F25CE0FF8F2F90F25CE0FF8F3090F27C
:200B7C005CE0FF8F3190F25CE0FF8F2A752B00752C00752D0090F25CE0FF7E007D008D04BC
:200B9C008E058F06E4422AEE422BED422CEC422D90F25CE0FF7E008E048F05E4FE422AEE13
:200BBC00422BED422CEC422D90F25CE0FCE4FFFEFDEF422AEE422BED422CEC422D90F25C14
:200BDC00E0FF74805FF53290F25CE0F53390F25CE0F5447F00EF2434F990F25CE0F70FBF81
:200BFC00100040F190F2537440F0120E0AE5827027752501E52A452B452C452D700890F200
:200C1C00137402F08012E532600890F2137402F0800690F2537402F09060067401F0801285
:200C3C0090F2537440F0C4F0800890F2537440F0C4F0906005E053E0FDF090F030E043E00E
:0C0C5C0002F0906006E0600302064A22ED
:200C680090F0487401F0227F00AD1CAE1DC3ED947FEE94005005120C687F018F8222AF1D6B
:200C88007E00BF01028014BF02028046BF0603020D11BF2203020D47020D7BC3E5209412D5
:200CA800E52194005006AD20AF2180047D127F007F00C3EF9D500DEF90315793FC90F1DCEF
:200CC800F00F80EE7F008D828F831204F87E01020D7BC3E5209447E52194005006AD20AFD9
:200CE8002180047D477F007F00C3EF9D500DEF90316993FC90F1DCF00F80EE7F008D828F4A
:200D0800831204F87E01020D7BC3E520940AE52194005006AD20AF2180047D0A7F007F0035
:200D2800C3EF9D500DEF9031EF93FC90F1DCF00F80EE7F008D828F831204F87E018034C363
:200D4800E520943FE52194005006AD20AF2180047D3F7F007F00C3EF9D500DEF9031B09349
:200D6800FC90F1DCF00F80EE7F008D828F831204F87E018E82227F00AD1CAE1DC374019D5E
:200D8800E49E4005120C687F018F82227405B51B02800E7406B51B02800A7409B51B0B80C4
:200DA80006020C6F020C86020D7E7582002290F1DCE4F0AE20AF21C3EE9401EF9400500284
:200DC80080047E017F008E828F831204F8758201227409B51B02800E740AB51B028011740D
:200DE800FEB51B16801190F0487405F075820122120C6875820122020DB6758200227582B6
:020E08000022C6
:203157001201000200000040FE13015210010000000109024700020100804B09040000035D
:2031770008065000070581024000000705020240000007058303080000090401000203010D
:203197000100092101010001223F00070583030800010705040308000105010906A1010516
:2031B7000719E029E71500250175019508810295017508810195057501050819012905918C
:2031D7000295017503910195067508150025650507190029658100C00A0600020000004039
:0231F7000100D5
:200E0A00752501AF34BF00028037BF0303020EE8BF0603020F22BF1202802ABF1A03020EB1
:200E2A00BABF1E028014BF2302804DBFC603020F22BFC703020F220210B3752500758201FC
:200E4A00227582012275450075462475470090000075F0001210B89000017480F090000320
:200E6A0023F0900004741FF07524009000241205827525007582012275450075460C754767
:200E8A000090000075F0001210B89000037408F090000623F09000087403F090000A14F034
:200EAA0075240090000C1205827525007582012275450075460875470090000075F0001266
:200ECA0010B89000007403F09000027480F07524009000041205827525007582012275459F
:200EEA000075461275470090000075F0001210B89000007470F09000027402F09000077429
:200F0A000AF090000C743AF075240090001212058275250075820122AF35BF05030210212D
:200F2A00BF0602801EBF0702803CBF08028058BF09028068BF5603020FB6BFBF0302107881
:200F4A000210AFAF367E00AC377D00EC4206ED42078E828F83E0900000F0752400900001ED
:200F6A001205820210B3AF367E00AC377D00EC4206ED42078E828F83E538F0752400900084
:200F8A00011205820210B3A9368707900000EFF07524009000011205820210B3A936A737C7
:200FAA007524009000011205820210B375450075460075470290000075F0001210B890F419
:200FCA0080E4F090F61814F090F60814F090F40004F090F41EE030E0F990F4007490F09074
:200FEA00F404E4F07E007F008E0474002FFD90F408E08C828D83F00EBE00010FC3EE94064B
:20100A00EF6480948040E17524009002001205827525007582012275450075461075470203
:20102A0090000075F0001210B8900094E4F09000957499F09000967453F090017A7456F01B
:20104A0090017B7452F090017E7423F090017F7407F09002007449F09002017446F075249E
:20106A00009002101205827525007582012290FA147407F090F747E054EFF090FA15740674
:20108A00F090FA38E04401F090F08FE4F090FA68E054F7F090FA6AE054F7F090FA48E0547A
:0D10AA00FEFFF08004758200227582002296
:0110B7003206
:06005800E478FFF6D8FD7C
:1F10B800AC82AD83AE46AF47BE0004EF600C1F0FE5451210D7A3DEFADFF88C828D8322D1
:200036007900E94400601B7A009031F9780775A060E493F2A308B8000205A0D9F4DAF275E0
:02005600A0FF09
:1B10D70020F71130F6138883A88220F509F6A8837583002280FEF280F5F02218
:2010F2007A10E4FBFCE58225E0F582E58333F583EB33FBEC33FCEB9545F5F0EC9546400698
:09111200FCABF0438201DADD229E
:20005E007800E84400600A790075A060E4F309D8FC7807E84400600C7901906000E4F0A3DA
:04007E00D8FCD9FAD7
:0D002900758147121153E582600302002625
:20111B00C2D5E58330E70DD2D5E4C39582F582E49583F583E54630E70DB2D5E4C39545F5F5
:18113B0045E49546F5461210F230D50BE4C39582F582E49583F583226E
:04115300758200227F
:00000001FF
