:0600000002002902085372
:03000B0002040FDD
:030013000209BF20
:03001B000203B924
:030023000210F0D8
:13008200E4F508F509F50AF50B750C20F50DF50E020026BF
:030026000202B320
:2000950090FA407440F090FA41E4F090FA427440F090FA437460F090FA44E4F090FA457458
:2000B50060F090FA467470F090FA47E4F090F80A741FF090F80EE4F090F809742CF090F86A
:2000D500107480F0A3E4F090F009E054076404701C90FA60E4F0A3740FF0A3F090FA64741F
:2000F50008F0A304F0A314F0A304F0801790FA60E4F0A3740FF0A3F090FA647402F0A3F039
:20011500A3F0A3F090FF00E054FBF0E04404F0E04410F0E054FCF090FF0374C1F090FF0C48
:20013500E030E0F990FF13E054FEF090FF0CE020E10790FF13E04410F090FA6FE0441DF08A
:2001550090FA14E054FDF0A3E04402F090FA217407F090FA20E4F090FA68E054F7F090FAE7
:2001750069E054F7F090FA6AE054F7F090FA6BE054F7F0758911758CF0758A5F758DF07502
:200195008B5F75B80175881075980075A8802290FA38E030E1012290F0007405F090F20018
:2001B500E054FEF090F0007405F090F2137430F0906CD1E0FF700C906CD0E07006906CD2DE
:2001D500E0601B906CD2E090F214F0906CD0E090F215F0A3E04FF090F213E054EFF0906CE2
:2001F500D4E0FF700C906CD3E07006906CD5E0603690F213E04FF0906CD3E0FE90F212F06A
:20021500906CD5E090F211F0EE249A90F217F0A3E054F0F0E04FF0906CD3E0C394665007C7
:2002350090F218E0440FF090F2287424F090F210E054F7F090F000E4F090F014E054BFF042
:2002550090FA6FE04410F090F014E0540360F890FA6B74FFF022AF8290F293E4F090F293A0
:20027500E0FE20E6F890F29CE545F0E4F0EFF07E007F0090F29CE4F00EBE00010FC3EE9492
:2002950005EF6480948040EB90F28C7408F090F28DE4F090F28EF090F2937440F0221200E8
:2002B500951201A41206FC1203C612049B1204B4120A8EAC0FAD10AE11AF12050FE4B50F15
:2002D5000C0510B510070511B511020512C3ED9420EE9400EF94004020E50C9420E50D9433
:2002F50000E50E94005012050BE4B50B0C050CB50C07050DB50D02050EE50A60B3C3E50CC8
:200315009420E50D9400E50E940040A4E5082490FEE5093411FF8E828F83E493605A754545
:200335000075820012026B75450075820012026B75450075820012026B754500758200120F
:20035500026BE5082490F582E5093411F583E493FF74012508FDE43509FEED2490F582EE1D
:200375003411F583E493F5458F8212026B75450075820012026B8011E4F50BF50CF50DF5CD
:200395000EF50FF510F511F51274022508F508E43509F509C3648094A050030202C5750AEE
:0403B500000202C57B
:2011900012345678000000000000000000000000000000000000000000000000000000002B
:2011B00000000000000000000000000000000000000000000000000000000000000000001F
:2011D0000000000000000000000000000000000000000000000000000000000000000000FF
:2011F0000000000000000000000000000000000000000000000000000000000000000000DF
:201210000000000000000000000000000000000000000000000000000000000000000000BE
:2003B900C28E85198D85188B0517D28E3290FA60E0FFBF0F0875183C7519F6802390FA605A
:2003D900E0FF7E0074022FF545E43EF5469009C4121154AE82AF83C3E49EF518E49FF51952
:2003F900751700C28ED2ABAE8953060F4306108E892285178222C0E0C082C083C007C00668
:20041900C0D075D000C28C758AE6758C96D28C90FA15E020E102805805130514C3E51495EA
:20043900165002804B75140074E12515500B90FA157401F0751500803774F62515500B9029
:20045900FA15E0FFF4F005158026E5157002802090FA15E030E00A90FA15E053E0FEF0802C
:200479000F90FA15E0FF7E0043070190FA15EFF0D0D0D006D007D083D082D0E032AE828EFD
:20049900162275166475130090FA157403F0751400751500D2AFD2A9D28C2290FA157402EA
:0F04B900F07515012290FA157403F075150022E5
:2004C800AF8290F80BE4F01F90F80CEFF0E4B54602800E7401B5460280147402B5461C8068
:2004E8001490F80DE545F090F80EE545F02290F80DE545F02290F80EE545F022AE82AF835A
:200508008E0590F1CCEDF08F0690F1CDEEF090F1CEE4F090F1D37440F090F1D3E0FF20E601
:20052800F890F0487405F022AE82AF83EE4F6056754500754600758220C007C0061204C81C
:200548007545807546017582201204C8D006D00790F1C57480F090F1C6E4F090F1C7F090EE
:20056800F1CAE523F08E0590F1CCEDF08F0690F1CDEEF090F1CEE4F090F1D37488F090F15E
:20058800D3E0FF20E7F822AE82AF83EE4F6056754500754600758220C007C0061204C875BF
:2005A80045807546017582201204C8D006D00790F2057480F090F206E4F090F207F090F24E
:2005C8000AE524F08E0590F20CEDF08F0690F20DEEF090F20EE4F090F2137488F090F21396
:2005E800E0FF20E7F8229000007455F09000017453F09000027442F09000037453F0900050
:2006080004E52EF0900005E52FF0900006E530F0900007E531F0AF26900008EFF0AF279048
:200628000009EFF0AF2890000AEFF0AF2990000BEFF090000CE525F075240090000D120545
:200648008F906006E4F0F526F527F528F5292290F213E0FF20E1F890F010E0FF74205FFED8
:200668007F0090F217E0FD20E70AEE4F70F4906006E4F02290F213E0FF20E6F890F253E0B8
:20068800FF20E6F890F293E0FF20E6F890F2D3E0FF20E6F890F21C7455F07453F07442F07D
:2006A8007453F090F21CE52EF0E52FF0E530F0E531F0AF2690F21CEFF0AF2790F21CEFF026
:2006C800AF2890F21CEFF0AF2990F21CEFF0E525F090F20C740DF090F20DE4F090F20EF08D
:2006E80090F2137440F0906006E4F0F526F527F528F52922906000E4F0906005F0906006BC
:20070800F0F52290F2057480F090F206E4F090F207F090F2087410F090F20AE4F090F24565
:200728007480F090F246E4F090F247F090F2487410F090F24AE4F090FA38E030E15490F013
:2007480009E0FF5307077E00BF0408BE0005752204802790F009E0540760028005752200B8
:20076800801890F009E0FF5307077E00BF0108BE00057522018003752200D2AAD2A890F0DF
:2007880030740AF0E4F526F527F528F529F5250205EE90F0007406F090F283E04410F090AB
:2007A800F28C74C2F0A374E0F0A3749CF090F2907417F090F293740CF090F32074C0F0A387
:2007C80074E3F0A3748BF0A3742EF090F3267401F0A37405F090F30D7410F090F30C7402E0
:2007E800F090F30A7430F090F0007407F090F28074B5F090FA6FE054EFF0E490422BF0906D
:20080800422BE004F0E0B4FAF690FA6FE04410F090F014E0540360F890F000E4F090F0688F
:2008280074C0F090F030740AF090F0087480F090FA38E0FF7E0043070290FA38EFF0D2AA7A
:20084800D2A87FFAEF14FEFF70FA22C0E0C082C083C007C006C005C004C0D075D00090F081
:2008680027E0FF906000F0EF30E50690F0277420F0EF30E40690F0277410F0EF30E73F905C
:20088800F0277480F090F009E0FE5306077D00BE0408BD0005752204802490F009E0540782
:2008A8007004F522801890F009E0FE5306077D00BE0108BD00057522018003752200EF306F
:2008C800E60690F0277440F090F087E0906004F090F086E0906003F090F082E0FF90600272
:2008E800F090F080E0FE906001F0EF30E70690F0827480F0906002E030E60690F0827440AB
:20090800F0906001E030E05390F0807401F090F048E030E74690F0B8E0F51A90F0B9E0F50C
:200928001B90F0BAE0FF90F0BBE0FDE4FC4FF51CED4CF51D90F0BCE0FF90F0BDE0FDE4FCC3
:200948004FF51EED4CF51F90F0BEE0FF90F0BFE0FDE4FEFC4FF520ED4CF52190F082E0FF35
:2009680030E50690F0827420F090F081E0FF30E40690F0817410F090F081E0FF30E50690D4
:20098800F0817420F0906002E0FF906001E04207906003E04207906004E04207906000E066
:2009A800FE4F6002C2A8D0D0D004D005D006D007D083D082D0E032C0E0C082C083C007C0ED
:2009C80006C005C0D075D00090F020E0540AFF30E11D90F030E053E0FDF090F0207402F0AE
:2009E800906005E0FE7D00430602906005EEF0EF30E31D90F030E053E0F7F090F02074089C
:200A0800F0906005E0FF7E00430708906005EFF0D0D0D005D006D007D083D082D0E032902D
:200A2800F030740AF090F213E4F090F253F090F293F090F2D3F022AE1A5306607F00BE00C8
:200A480005BF00028010BE2005BF0002800FBE401ABF0017800E120DC1AF828010120E08C0
:200A6800AF828009120E35AF8280027F00EF7015E520452160067E087F0080047E027F0060
:200A880090F048EEF022906002E0FF906001E0FE4FFD906003E04205906004E04205906075
:200AA80000E0FC4D6076EC6039EC30E62490F008E053E07FF0120A2790FF88E4F090FF823B
:200AC8007410F090FF88E0FDBD02F890F0087480F0906000E030E703120A27906000E4F092
:200AE8008038EF54C0601B120A2790F092E4F090F096F0906002E030E60F90F07A7401F033
:200B08008007EE30E003120A3F906001E4F0906002F0906003F0906004F0D2A890F2DAE0C6
:200B2800602090F2D37440F0750A01906005E053E0F7F090F030E0FF7E0043070890F030B6
:200B4800EFF0906005E020E103020C9F90F25AE0FFBF1F028003020C80E4F526F527F52844
:200B6800F52990F25CE0FF90F25CE0FE90F25CE0FD90F25CE0FCBF55028003020C76BE5333
:200B8800028003020C76BD42028003020C76BC43028003020C7690F25CE0FF8F2E90F25CDC
:200BA800E0FF8F2F90F25CE0FF8F3090F25CE0FF8F3190F25CE0FF8F2A752B00752C00756B
:200BC8002D0090F25CE0FF7E007D008D048E058F06E4422AEE422BED422CEC422D90F25C30
:200BE800E0FF7E008E048F05E4FE422AEE422BED422CEC422D90F25CE0FCE4FFFEFDEF4242
:200C08002AEE422BED422CEC422D90F25CE0FF74805FF53290F25CE0F53390F25CE0F5447D
:200C28007F00EF2434F990F25CE0FEF70FBF100040F090F2537440F0120E39E582702775E7
:200C48002501E52A452B452C452D700890F2137402F08012E532600890F2137402F08006FF
:200C680090F2537402F09060067401F0801290F2537440F0C4F0800890F2537440F0C4F062
:200C8800906005E053E0FDF090F030E0FF7E0043070290F030EFF0906006E06003020657D7
:010CA8002229
:200CA90090F0487401F0227F00C3E51C947FE51D94005005120CA97F018F8222AF1D7E00D7
:200CC900BF01028014BF02028041BF0603020D4ABF2203020D7B020DAA7F00EF9031909397
:200CE900FD90F1DCF00FBF120040F0E5209412E52194005006AD20AF2180047D127F008D3A
:200D0900828F831205047E01020DAAC3E5209447E52194005006AD20AF2180047D477F00EC
:200D29007F00C3EF9D500DEF9031A293FC90F1DCF00F80EE7F008D828F831205047E01801A
:200D4900607F00EF90322893FD90F1DCF00FBF0A0040F0E520940AE52194005006AD20AFDE
:200D69002180047D0A7F008D828F831205047E01802F7F00EF9031E993FD90F1DCF00FBF92
:200D89003F0040F0E520943FE52194005006AD20AF2180047D3F7F008D828F831205047EFD
:200DA900018E82227F00C37401951CE4951D4005120CA97F018F82227405B51B02800E74ED
:200DC90006B51B02800A7409B51B0B8006020CB0020CC5020DAD7582002290F1DCE4F0C370
:200DE900E5209401E52194005006AE20AF2180047E017F008E828F83120504758201227475
:200E090009B51B02800E740AB51B02801174FEB51B16801190F0487405F075820122120C2D
:100E2900A975820122020DE37582002275820022D2
:203190001201000200000040FE13015210010000000109024700020100804B090400000324
:2031B0000806500007058102400000070502024000000705830308000009040100020301D4
:2031D0000100092101010001223F00070583030800010705040308000105010906A10105DD
:2031F0000719E029E715002501750195088102950175088101950575010508190129059153
:203210000295017503910195067508150025650507190029658100C00A06000200000040FF
:0232300001009B
:200E3900752501AF34BF00028037BF0303020F17BF0603020F51BF1202802ABF1A03020E23
:200E5900E9BF1E028014BF2302804DBFC603020F51BFC703020F510210EC75250075820107
:200E7900227582012275450075462475470090000075F0001210F19000017480F0900003B8
:200E990023F0900004741FF075240090002412058F7525007582012275450075460C75472B
:200EB9000090000075F0001210F19000037408F090000623F09000087403F090000A14F0CC
:200ED90075240090000C12058F7525007582012275450075460875470090000075F000122A
:200EF90010F19000007403F09000027480F075240090000412058F7525007582012275452A
:200F19000075461275470090000075F0001210F19000007470F09000027402F090000774C0
:200F39000AF090000C743AF075240090001212058F75250075820122AF35BF0503021052C0
:200F5900BF0602801EBF0702803CBF08028058BF09028068BF5603020FE5BFBF030210A9F2
:200F79000210E8AF367E00AC377D00EC4206ED42078E828F83E0900000F075240090000185
:200F990012058F0210ECAF367E00AC377D00EC4206ED42078E828F83E538F075240090000F
:200FB9000112058F0210ECA9368707900000EFF075240090000112058F0210ECA936A7370C
:200FD90075240090000112058F0210EC75450075460075470290000075F0001210F190F46B
:200FF90080E4F090F61814F090F60814F090F40004F090F41EE0FF30E0F890F4007490F0D7
:2010190090F404E4F07E007F008E0474002FFD90F408E0FB8C828D83F00EBE00010FC3EE2A
:201039009406EF6480948040E075240090020012058F752500758201227545007546107577
:20105900470290000075F0001210F1900094E4F09000957499F09000967453F090017A74B0
:2010790056F090017B7452F090017E7423F090017F7407F09002007449F09002017446F0C2
:2010990075240090021012058F7525007582012290FA147407F090F747E054EFF090FA1519
:2010B9007406F090FA38E0FF7E0043070190FA38EFF090F08FE4F090FA68E054F7F090FA28
:1710D9006AE054F7F090FA48E054FEFFF080047582002275820022D2
:0110F00032CD
:06005800E478FFF6D8FD7C
:1F10F100AC82AD83AE46AF47BE0004EF600C1F0FE545121110A3DEFADFF88C828D83225E
:200036007900E94400601B7A00903232780775A060E493F2A308B8000205A0D9F4DAF275A6
:02005600A0FF09
:1B11100020F71130F6138883A88220F509F6A8837583002280FEF280F5F022DE
:20112B007A10E4FBFCE58225E0F582E58333F583EB33FBEC33FCEB9545F5F0EC954640065E
:09114B00FCABF0438201DADD2265
:20005E007800E84400600A790075A060E4F309D8FC7807E84400600C7901906000E4F0A3DA
:04007E00D8FCD9FAD7
:0D00290075814712118CE5826003020026EC
:20115400C2D5E58330E70DD2D5E4C39582F582E49583F583E54630E70DB2D5E4C39545F5BC
:1811740045E49546F54612112B30D50BE4C39582F582E49583F58322FB
:04118C007582002246
:00000001FF
